:020000040000fa
:080000000002040000000000f2
:020000040000fa
:10000800cc020000cc020000cc020000cc020000b0
:10001800cc020000cc020000cc020000cc020000a0
:10002800cc020000cc020000cc020000cc02000090
:10003800cc020000cc020000cc020000cc02000080
:020000040000fa
:020000040000fa
:100400000f8020000eff27000e0188000000000072
:1004100000012000200288000c0007004045200059
:10042000010020000f000700000020000000e00095
:10043000020032000000020000000000d0020200b2
:10044000000000000040da000000fe002000200054
:100450000000e0000200320010002000900188003f
:1004600000000600a1028800800078000000eb0078
:100470001a003700e280400054a0b4009101ba0095
:10048000e280400054a0b4009102ba00e280400033
:1004900054a0b4000002eb00472bde00f507b200c9
:1004a000a6018800602ce10008003a000049eb003a
:1004b0000201e800020039003420ec0002f0a00044
:1004c0008301e900f9ff3e00040037006128e100e4
:1004d000010032000082eb00040007001101ba00a5
:1004e0000200e000e3ff3a000000060004d0a30091
:1004f000e20f49001c003900810278003549ba003a
:100500000201e800020039003420ec0002f0a000f3
:100510008301e9000f0032002549ba000201e8001a
:10052000020039003420ec0002f0a0008301e90051
:10053000080032000400e0000600320015c9ba00cd
:100540000201e800020039003420ec0002f0a000b3
:100550008301e9008180e80054a0b4000300e000ba
:10056000e2ff3a00000006009102ba000559780047
:100570008301e900f7ff3200c82ade000559780040
:100580008301e900f3ff32000400e000f1ff3200d4
:1005900011d9ba00eeff37000040da000000fe007b
:020000040000fa
:1005a0000000fa008f00070080c4b300800007003d
:1005b00090c6b3007e00070010c2b3007c000700a5
:1005c000ffff37000200fa00004f78001e4278005b
:1005d0006142620061426200614262000482fb008b
:1005e000610262000402420026178000d5ff2f003e
:1005f0008502630004827200241788001e02fb003b
:10060000620262000482d10004427800614262000a
:100610000482fb00610262004222dd002617800096
:10062000b5ff2f0085026300048272002417880042
:100630001e02fb006402620042a2de000442780057
:10064000614262000482fb00610262004322dd001d
:100650002617800075ff2f00850263000482720058
:10066000241788001e02fb006802620043a2de001d
:1006700004427800614262000482fb006102620071
:100680004422dd0026178000f5fe2f00850263005e
:1006900004827200241788001e02fb0070026200b0
:1006a00044a2de0004427800614262000482fb0042
:1006b000610262004522dd0026178000f5fd2f0053
:1006c0008502630004827200241788009e02fb00ea
:1006d000040220000482620045a2de000442780089
:1006e000614262000482fb00610262004622dd007a
:1006f00026178000f5fb2f0085026300048272003c
:10070000241788009e02fb0004042000048262007b
:1007100046a2de0004427800614262000482fb00cf
:10072000610262004722dd0026178000f5f72f00e6
:100730008502630004827200241788009e02fb0079
:10074000040820000482620047a2de000442780010
:10075000614262000482fb00610262004622dd0009
:10076000a6178000f5fb2f0085026300048272004b
:10077000a41788000080fa00000006000200fa00ba
:10078000004f78001e4078008eff0700ec02a900a1
:10079000ec22a900e402a800800020000100200053
:1007a00033000700e402a9000080fa000000060000
:1007b0000200fa00004f78001e40780081ff070019
:1007c000ec02a800ec22a900e402a80080002000ae
:1007d0000100200026000700e402a9000080fa00c2
:1007e000000006000000fa000002eb000417880079
:1007f000e802a900e822a900f0c2a900e402a900c9
:1008000000502300c10020001900070000c3b300fe
:10081000daff070000982a003100200014000700ca
:1008200000c3b300d5ff070000882300110020009b
:100830000f00070000c3b300d0ff070000882300ab
:10084000110020000a00070080c3b300cbff07009f
:1008500000c1b300c9ff0700c0c0b300c7ff070055
:1008600060c0b300c5ff07000080fa00000006006a
:020000040000fa
:10087000f03fb1000180b10006003500ee03090031
:1008800000000000403fb1000180b100fbff3d00cf
:100890001000b000203fb0000200350000800900c9
:0808a00000000000000006004a
:020000040000fa
:0408a800000000004c
:020000040000fa
:020000040002f8
:04aff400ffff00005b
:020000040000fa
:020000040002f8
:04aff800bf7b00001b
:020000040000fa
:020000040002f8
:04affc007f3f000093
:00000001FF
