:020000040000fa
:080000000002040000000000f2
:020000040000fa
:10000800d8020000d8020000d8020000d802000080
:10001800d8020000d8020000d8020000d802000070
:10002800d8020000d8020000d8020000d802000060
:10003800d8020000d8020000d8020000d802000050
:020000040000fa
:100400000f0021000eff24000e01880000000000f4
:1004100000012000200288000c00070040a32000fb
:10042000010020000f000700000020000000e00095
:100430000200320000000200000000002c08020050
:10044000000000000040da000000fe002000200054
:100450000000e0000200320010002000900188003f
:1004600000000600a1028800800078000000eb0078
:100470001a003700e280400054a0b4009101ba0095
:10048000e280400054a0b4009102ba00e280400033
:1004900054a0b4000002eb00472bde00f507b200c9
:1004a000a6018800602ce10008003a000049eb003a
:1004b0000201e800020039003420ec0002f0a00044
:1004c0008301e900f9ff3e00040037006128e100e4
:1004d000010032000082eb00040007001101ba00a5
:1004e0000200e000e3ff3a000000060004d0a30091
:1004f000e20f49001c003900810278003549ba003a
:100500000201e800020039003420ec0002f0a000f3
:100510008301e9000f0032002549ba000201e8001a
:10052000020039003420ec0002f0a0008301e90051
:10053000080032000400e0000600320015c9ba00cd
:100540000201e800020039003420ec0002f0a000b3
:100550008301e9008180e80054a0b4000300e000ba
:10056000e2ff3a00000006009102ba000559780047
:100570008301e900f7ff3200c82ade000559780040
:100580008301e900f3ff32000400e000f1ff3200d4
:1005900011d9ba00eeff3700ae08040000000000d9
:1005a000600804000000000036090400000000009c
:1005b0000040da000000fe00889fbe008a9fbe0057
:1005c0008c1f7800ac000700b300330003866c007a
:1005d0006450e1002e0032006420e100330032005c
:1005e0006150e1002f0032006120e1003100320053
:1005f00085855500eb07b0000900200008042000a5
:10060000050037000804440089844c000a003100ca
:100610000603430087834b000001530081815b0088
:10062000f8ff33000203be000800a00008044400e5
:1006300089844c00f6ff3900c639dd008301730060
:1006400001003200130020008904d1000884d30087
:100650000998a300050032000800a7000300a000cd
:100660008904d1000884d3008b05e8008904d100f7
:100670000884d3000001eb000281d2004300070090
:1006800001f0a1000cf0a70001f0a0008b003700e2
:100690006420e1008d0032000801be000200be00af
:1006a000f7ff37006120e100880032006000b800e9
:1006b000f3ff37000000200001f82700f0ff3700ab
:1006c000839f68000100e00002003d006000100010
:1006d000e08018000300e00002003d00600111000e
:1006e000e0811900b00007004f00e00002003b006d
:1006f00060001000e0801800000006000001be004d
:10070000480007000470a70003f0a1006509b100cc
:10071000160032000d0035006828e10006003500a3
:10072000f0ff2f00f1ff27000300e00013003b0063
:100730000100280000000500000040008180480002
:100740008502e900fcff3a0008003700f88f4200fc
:1007500002003c008000eb00000005008100d10099
:100760000080d3008502e800fcff3a000300e000af
:1007700002003b0060001000e0801800000006004e
:100780004f89de0082017800d2013700810020000d
:10079000618055000b003d000b00200061fe2f0022
:1007a0000100e1001d0034008281710061016400dc
:1007b0008904d1000884d3000000e800faff3a0061
:1007c00071002000610064000300700002006000fe
:1007d0000900320061044400e0844c000988a5004f
:1007e000050032008b05e8006808e10002003a00cd
:1007f0008904d1000884d300f20f20000258e100e0
:1008000005003d00c75ddd00f907b2008980750075
:1008100008007800000006000bf827008b00780025
:1008200000000500c70ade00f107b200f50fb200b4
:1008300008003200e1cf4200020032000170a00047
:1008400024000500810f700001003200040805003b
:1008500044000500810f700002003a0014000500fa
:100860008502e9000000400081c04800fcff3b0019
:100870000170a000240005000004be00e9ff07008d
:100880000003be000405be000200be00e5ff070035
:10089000844f7500000006000200be006450e100b5
:1008a000050036006420e100020036000968a3005c
:1008b00001003a000800be000160a0004f06780069
:1008c0004f05be004f04be0000000600f0ff2f00e1
:1008d000f1ff2700f9ff3700889fbe008a9fbe0006
:1008e0008c1f7800e4ff0700ebff330003866c00e9
:1008f0006450e100240032006420e100270032004f
:100900006150e100220032006120e100210032004c
:100910008b854200eb07b1000134b800003ab80003
:100920000804420089844a00013ab8000030b80047
:100930008880400009014a000400330000004000a4
:1009400081804800020149008b05e900c909dd00ea
:10095000830170000100320013002000c814de0083
:100960004814dd004709de001200b200c808de00ae
:100970000884700085ff070001f0a1000cf0a700bb
:1009800001f0a000cdff37006120e100cfff320071
:100990000801be000200be00f7ff37006150e10011
:1009a000fcff3a00c9ff37006022b80006022000b1
:1009b0000000d0008180d2000482d2008582d20063
:1009c0000000a0000202520083825a00030031009e
:1009d0000202420083824a000000a1000603e900ef
:1009e000f3ff3a00000006000000fa00889fbe00f6
:1009f0008a9fbe003004be002005be0004044400ef
:100a000085844c0006054d0087854d000898be0082
:100a10000a90be000440e10005c8e10006d0e100f4
:100a200007d8e10002003100680040001008e8002b
:100a30004f05be004f04be000080fa000000060013
:100a40001000fa00889fbe008a9fbe000605be0007
:100a50000404be003002be002003be00049fbe009e
:100a60000697be000802520089825a000a035b0002
:100a70008b835b0044079800550798006607980031
:100a8000770798000498be000698be001100200069
:100a90003e02be002e03be000820e10009a8e100ce
:100aa0000ab0e1000bb8e100010039008000eb0062
:100ab000108810004f05be004f04be000080fa00f1
:100ac000000006001400fa00889fbe008a9fbe0046
:100ad0008c9fbe00590007000605be000404be003e
:100ae0000006eb004c0798003c0798002c07980084
:100af0001c0798000c0f78000d0420004e03900096
:100b0000be029000860343002e029000e00f5300c7
:100b100003003d002a000700b3ff07000200370072
:100b200027000700c6ff0700ce029000150f9800af
:100b3000e08f520009003500450007001400200036
:100b4000050020006033b800000072008180720050
:100b50000201730083817300380007000c06e8006f
:100b60008d0f5600e5ff3a001e0a9000e00f52007c
:100b700004003d000802be000a03be000e0078001b
:100b800099ff07004eba9700e00f520006003a00a6
:100b90003e04be002e05be00580798006907980065
:100ba0007a0798000b0f9800290007004f06be0037
:100bb0004f05be004f04be000080fa000000060092
:100bc0004f2bde0087037300470798004f23de009a
:100bd0008582420085027300350798009e029000ce
:100be0004f2bde0004024200040273002407980029
:100bf0001e0278004f23de008582420085027300ca
:100c000015079800120007004f18de00040242008a
:100c1000000f72000e0007000000400081804800b5
:100c20000201490083814900040007000802be0058
:100c30000a03be000e00780000000600500798006e
:100c40006107980072079800030f980000000600e3
:100c50005e009000ee0090007e0190008e099000f2
:100c6000000006000000fa00881f7800180020002d
:100c7000881f780093ff07008f87e9004f047800f2
:100c80000080fa00000006000000fa00801feb0060
:100c90008cff07008f87e9000080fa000000060043
:100ca0000000fa00889fbe008a9fbe00e00f50003f
:100cb000e08f5800e00f5900e08f59000c003d0014
:100cc0006044b8006055b8000000540081805c00aa
:100cd00002015d0083815d001800200016000700fe
:100ce00008003d00190007000004eb000500370074
:100cf0000004eb001000070002003d001300070095
:100d000018002000d7ff0700e00f54000600320053
:100d10006022b8006033b8000000520081805a00a1
:100d200002015b0083815b004f05be004f04be00e3
:100d30000080fa0000000600e00f5200e08f5a0029
:100d4000e00f5b00e08f5b00000006006044b8002d
:100d50006055b8000402540085825c0006035d0003
:100d600087835d00000006000000fa00889fbe0037
:100d70008a9fbe008c1f7800e00f5000e08f580063
:100d8000e00f5900e08f59000d003d006044b800ad
:100d90006055b8000000540081805c0002015d00d5
:100da00083815d001c0020000820e10009a8e1000b
:100db0000ab0e1000bb8e1000d003d00080037006b
:100dc0000006eb00e00f5200e08f5a00e00f5b00de
:100dd000e08f5b0006003d006044b8006055b8003d
:100de0000402540085825c0006035d0087835d0079
:100df000a5ff0700e00f5600060032006022b80091
:100e00006033b8000000520081805a0002015b008c
:100e100083815b004f0678004f05be004f04be0083
:100e20000080fa00000006000000fa00889fbe0063
:100e30008a9fbe008c1f78000006eb00e00f500078
:100e4000e08f5800e00f5900e08f590007003d0087
:100e50006044b8006055b8000000540081805c0018
:100e600002015d0083815d001c002000e00f520044
:100e7000e08f5a00e00f5b00e08f5b0007003d0051
:100e80006044b8006055b8000402540085825c00dc
:100e900006035d0087835d000c00a2004c00070084
:100ea000e00f5600060032006022b8006033b80040
:100eb0000000520081805a0002015b0083815b00c8
:100ec0004f0678004f05be004f04be000080fa00b8
:100ed00000000600881f7800030478000300e0008b
:100ee00007003d0060001000e0801800600119005c
:100ef000e081190002003b0001f02d0003003700e3
:100f00000400070008f0a70001f0a0004f047800db
:100f100000000600889fbe008a9fbe00008270000d
:100f20000402710004827100260032000004be0039
:100f30000200be006011b8006b092000950220007d
:100f40000182cf000a0039000541b1000082cf00c4
:100f5000070039000541b1000982cf0004003900c3
:100f60000541b1000882cf00010039000541b10000
:100f700005425200120032000a003b0082817100db
:100f8000610164008100d1000080d3008984d30016
:100f90000884d3008b05e8000442e800f7ff3a001c
:100fa000070037000804440089844c000000480012
:100fb000818048008b05e9000442e900f9ff3a000e
:100fc000f2fd07004f05be004f04be000000060002
:100fd000889fbe008a9fbe008c9fbe000404b8009c
:100fe0000506b8008904460060854e000606b80074
:100ff0000a054600e0854e000706b8008b0546004e
:10100000040eb800890446000a854e00e0854d00b4
:10101000050eb8000a0546008b854e00060eb80086
:101020008b0546000416b8000a0546008b854e0065
:101030000516b8008b054600041eb8008b05460057
:101040000800be000a01be004f06be004f05be00ec
:081050004f04be000000060081
:020000040000fa
:101058000000fa0010eea900114ea900118ea80098
:10106800e48a20000400010014eea90055000700de
:101078002023a8000005200001002000ea00070046
:101088002023a9000000000004198000610262000a
:10109800e00f5200fcff3200058620001418800083
:1010a80004007800050001000088230011002000da
:1010b800dd000700edff37000200fa00000f78009e
:1010c800947080004722de006142620004c2ea0098
:1010d800614262000482fb00610262004722dd0077
:1010e800a6708000f5f72f00850263000482720065
:1010f800a47088001e02780004007800cf80de000b
:10110800010178008201780004202100a507200051
:101118006033b80042ff07000203be000002be00b1
:101128000400be000601be00843e20000500200029
:101138006033b800c9fe07000203be000002be000b
:101148000402be000400be00b70007000080fa00d9
:10115800000006000000fa000002eb00f4708800ae
:10116800f4708000747088000e0ea8000002eb0076
:10117800041988000002eb0014198800f40020000c
:10118800241988000002eb009419880054002000fc
:10119800441988000002eb00341988000002eb00b3
:1011a800741988000002eb008419880021e3a80064
:1011b800000a2000010020009b0007000080fa00c0
:1011c800000006000400fa000002eb00040f78009b
:1011d8000002eb00140798000e0037001e02900072
:1011e8000402e800140798001e029000ea0f52005b
:1011f8000500340014002000040f780014eea80045
:10120800000000000d00370000f42100010020005c
:1012180085000700957080000400210004826200a8
:10122800e00f5200edff3a000400370064932000fd
:1012380041062000a00521000400010095708000ef
:101248000400210004826200e00f5200f7ff3a0018
:1012580014eea9001e027800040078000080fa004d
:10126800000006001e00fa00889fbe005007980084
:10127800610798005e029000cfa2de000401be0064
:1012880000122a00710020000bfd07000002be00ba
:1012980014079800250798006e029000cfa2de0080
:1012a8000400be0034fd07000004be005e0290008a
:1012b800cfa2de000400be002ffd07000002be0022
:1012c80002002000a35724000400be00b8fc070059
:1012d8000002be000401be000800be007cfd07003d
:1012e8000002be000400be0002fd07000002be00ae
:1012f80034079800450798000002eb00040f7800b7
:101308003f003700154ea8001e029000ae02900064
:1013180074079800050f98002e0290004fa2de0077
:1013280084027800150f9800240f980004202100eb
:10133800a50720006033b8007e0090008e0890005a
:101348001e099000ae099000b5fe07000203be001a
:101358000002be000400be000601be0004242400f2
:10136800f50020006033b8003cfe07000203be0011
:101378000002be000402be000400be002a000700ee
:10138800154ea9001e029000ae029000340f98007e
:10139800450f98002e0290004fa2de0084027800cc
:1013a800550f9800640f980004202100a50720001d
:1013b8006033b8003e089000ce0890005e099000a7
:1013c800ee09900096fe07000203be000002be0070
:1013d8000400be000601be0004242400f50020001d
:1013e8006033b8001dfe07000203be000002be0005
:1013f8000402be000400be000b0007001e0fe80038
:101408001e0278006123b9003e029000ce029000cf
:10141800840f5300858f5b00baff34004f04be0071
:081428000080fa00000006003c
:020000040000fa
:10143000f03fb1000180b10006003500ee03090065
:1014400000000000403fb1000180b100fbff3d0003
:101450001000b000203fb0000200350000800900fd
:0814600000000000000006007e
:020000040000fa
:041468000000000080
:020000040000fa
:020000040002f8
:04afe000cfff00009f
:020000040000fa
:020000040002f8
:04afe400ffff00006b
:020000040000fa
:020000040002f8
:04afe8007fff0000e7
:020000040000fa
:020000040002f8
:04afec009fff0000c3
:020000040000fa
:020000040002f8
:04aff0003fff00001f
:020000040000fa
:020000040002f8
:04aff400ffff00005b
:00000001FF
